S00C00006770696F2E7372656369
S11300000C9434000C943E000C943E000C943E007E
S11300100C943E000C943E000C943E000C943E0064
S11300200C943E000C943E000C943E000C943E0054
S11300300C943E000C943E000C943E000C943E0044
S11300400C943E000C943E000C943E000C943E0034
S11300500C943E000C943E000C943E000C943E0024
S11300600C943E000C943E0011241FBECFEFD8E048
S1130070DEBFCDBF0E9482000C94A6000C94000049
S1130080FC01408121E030E002C0220F331F6A9559
S1130090E2F7242B20830895FC01808121E030E0E5
S11300A002C0220F331F6A95E2F7922F909589239D
S11300B080838181282B21830895FC01908121E094
S11300C030E002C0220F331F6A95E2F720952923FE
S11300D020830895FC01408121E030E002C0220F1A
S11300E0331F6A95E2F7242B20830895FC01408195
S11300F021E030E002C0220F331F6A95E2F7242783
S11301002083089565E084E290E00E94400065E069
S113011085E290E00E945D0065E087E290E00E9445
S1130120400065E088E290E00E946A0065E08AE2AF
S113013090E00E944C0065E085E290E00E94760029
S113014065E088E290E00E947600F5CFF894FFCF56
S9030000FC
