S00E000030362D6C63642E7372656350
S11300000C9434000C9451000C9451000C94510045
S11300100C9451000C9451000C9451000C94510018
S11300200C9451000C9443010C9451000C94510015
S11300300C9451000C9451000C9451000C945100F8
S11300400C9451000C9451000C9451000C945100E8
S11300500C9451000C9451000C9451000C945100D8
S11300600C9451000C94510011241FBECFEFD8E022
S1130070DEBFCDBF11E0A0E0B1E0EEE0F4E002C0ED
S113008005900D92A833B107D9F721E0A8E3B1E0B8
S113009001C01D92AB33B207E1F70E94FA000C9441
S11300A005020C940000299A85E08A95F1F7000076
S11300B029980895CF93C82F662311F0289A01C078
S11300C02898549A559A569A579A5F985E985D98CC
S11300D05C98CC230CF45F9AC6FD5E9AC5FD5D9ACC
S11300E0C4FD5C9A0E9453005F985E985D985C988A
S11300F0C3FD5F9AC2FD5E9AC1FD5D9AC0FD5C9A24
S11301000E9453005C9A5D9A5E9A5F9A87EB9BE02B
S11301100197F1F700C00000CF91089560E00E94BC
S11301205A00089561E00E945A000895611104C0C4
S113013080580E948E00089580540E948E00089575
S113014081E00E948E00089561E00E945A000895A3
S1130150CF93DF93EC012196FC018081882329F061
S11301600E94A40089918111FBCFDF91CF91089562
S1130170CF93C82F209A559A219A549A559A569AF1
S1130180579A8FEF99EF0197F1F700C000005D9A3D
S11301905C9A0E9453008FE19EE40197F1F700C03E
S11301A000000E9453008FEF90E00197F1F700C028
S11301B000000E9453008FEF90E00197F1F700C018
S11301C000005C980E9453008FEF90E00197F1F7D4
S11301D000C0000088E20E948E0088E00E948E0029
S11301E00E94A00086E00E948E008C2F0E948E0048
S11301F0CF9108958CE00E94B80060E081E00E94F5
S1130200960080E391E00E94A80061E081E00E94F2
S1130210960082E60E94A40060E08CE00E949600B2
S113022081E60E94A40061E08CE00E94960083E6CF
S11302300E94A40080E40E948E00C0E0D1E008E0A7
S113024011E089910E949200C017D107D1F780E88C
S11302500E948E0080E00E94A40061E080E00E9481
S1130260960081E00E94A40085B58D7F85BDE1EBF9
S1130270F0E0808185608083E0E7F0E08081816048
S113028080837894FFCF1F920F920FB60F921124A0
S11302902F933F934F935F936F937F938F939F938A
S11302A0AF93BF93EF93FF93CF93DF9300D000D02E
S11302B0CDB7DEB780E290E09A8389839C838B83F9
S11302C080913A018F5F863018F480933A014AC0D6
S11302D010923A01809139018F5F8A3018F480932B
S11302E039011FC010923901809138018F5F8D331D
S11302F018F48093380102C01092380180913801BB
S11303004AE0BE016D5F7F4F889FC00111240E94A7
S1130310D00160E08BE00E949600CE0103960E941B
S1130320A80060E087E00E94960080913901805D1A
S11303300E94A400809138014AE0BE016F5F7F4FA4
S113034090E00E94D00160E084E00E9496008091D9
S113035038018A3018F480E30E94A400CE0101968B
S11303600E94A80061E081E00E94960080E00E9463
S1130370A4000F900F900F900F90DF91CF91FF91F9
S1130380EF91BF91AF919F918F917F916F915F9109
S11303904F913F912F910F900FBE0F901F90189582
S11303A0BB274A3031F4992322F4BDE2909581951C
S11303B09F4F0C94DC01BB27FB015527AA27880F0C
S11303C0991FAA1FA41710F0A41B83955051B9F7C5
S11303D0A05DAA3308F0A95DA193009779F7B11144
S11303E0B1931192CB010C94F501DC01FC01672F50
S11303F071917723E1F7329704C07C916D937083F8
S11104006291AE17BF07C8F30895F894FFCFBA
S113040E000000000000000010101010101010105A
S113041E18181818181818181C1C1C1C1C1C1C1C2A
S113042E1E1E1E1E1E1E1E1E1F1F1F1F1F1F1F1FD2
S10B043E30303A30302E30005A
S9030000FC
