S00B00006C65642E73726563E4
S11300000C9434000C943E000C943E000C943E007E
S11300100C943E000C943E000C943E000C943E0064
S11300200C943E000C943E000C943E000C943E0054
S11300300C943E000C943E000C943E000C943E0044
S11300400C943E000C943E000C943E000C943E0034
S11300500C943E000C943E000C943E000C943E0024
S11300600C943E000C943E0011241FBECFEFD8E048
S1130070DEBFCDBF0E9440000C9481000C940000B0
S113008084B1806284B985B18F7D85B92FEF34E363
S11300908CE0215030408040E1F700C0000095B171
S11300A080E2982795B99FEF21EE34E091502040EB
S11300B03040E1F700C0000095B1982795B99FEF53
S11300C024E33CE0915020403040E1F700C00000C0
S11300D095B1982795B99FEF29E638E191502040D2
S11300E03040E1F700C0000095B1892785B98FEF52
S11300F094E32CE0815090402040E1F700C00000E0
S1090100C5CFF894FFCF07
S9030000FC
