S00F000030322D6C6162732E73726563E4
S11300000C9434000C943E000C943E000C943E007E
S11300100C943E000C943E000C943E000C943E0064
S11300200C943E000C943E000C943E000C943E0054
S11300300C943E000C943E000C943E000C943E0044
S11300400C943E000C943E000C943E000C943E0034
S11300500C943E000C943E000C943E000C943E0024
S11300600C943E000C943E0011241FBECFEFD8E048
S1130070DEBFCDBF0E9440000C9468000C940000C9
S1130080219A2D983D9A459855985D9880E24D9B0C
S1130090FECF2FEF39E698E1215030409040E1F750
S11300A000C0000095B1982795B998B1982798B9E0
S11300B02FEF39E698E1215030409040E1F700C03D
S11300C0000095B1982795B998B1982798B9DFCFD2
S10700D0F894FFCFCE
S9030000FC
