S00D0000736572766F2E73726563E8
S11300000C9434000C943E000C943E000C943E007E
S11300100C943E000C943E000C943E000C943E0064
S11300200C943E000C943E000C943E000C943E0054
S11300300C943E000C943E000C943E000C943E0044
S11300400C943E000C943E000C943E000C943E0034
S11300500C943E000C943E000C943E000C943E0024
S11300600C943E000C943E0011241FBECFEFD8E048
S1130070DEBFCDBF0E9440000C947F000C940000B2
S113008084B1806284B985B18F7D85B92FEF34E363
S11300908CE0215030408040E1F700C0000095B171
S11300A080E2982795B99FEF23EC39E091502040E6
S11300B03040E1F700C0000095B195B99FEF24E30B
S11300C03CE0915020403040E1F700C0000095B181
S11300D0892785B98FEF9DE329E481509040204022
S11300E0E1F700C0000085B185B93FEF84E39CE0EF
S11300F0315080409040E1F700C00000C7CFF89431
S1050100FFCF2B
S9030000FC
