S00E000030382D6932632E7372656383
S11300000C9434000C9451000C9451000C94510045
S11300100C9451000C9451000C9451000C94510018
S11300200C9451000C9451000C9451000C94510008
S11300300C9451000C946C000C9451000C945100DD
S11300400C9451000C9451000C942C010C945A0102
S11300500C9451000C9451000C9451000C945100D8
S11300600C9451000C94510011241FBECFEFD8E022
S1130070DEBFCDBF11E0A0E0B1E0E0EFF3E002C0ED
S113008005900D92AC33B107D9F721E0ACE3B1E0B0
S113009001C01D92A238B207E1F70E9453000C94EC
S11300A0F6010C9400000E94FB0087E690E00E9499
S11300B08401E1E8F0E080818A7F8083808182602E
S11300C08083EFE6F0E0808181608083789482E031
S11300D091E00E94B201FFCF1F920F920FB60F92D0
S11300E011241F932F933F934F935F936F937F93A9
S11300F08F939F93AF93BF93EF93FF93CF93DF932C
S113010000D0CDB7DEB780E390E39A8389838091F2
S11301100101823059F18330D9F1813009F052C0A4
S11301208091000191E0980F9093000187508037EF
S113013020F482E08093010148C0983789F480E27A
S113014091E00E94B20180913C014AE0BE016F5FE0
S11301507F4F90E00E94C101CE0101960E94B2013E
S11301601092000181E0809301012FC08091000171
S1130170880F0E940A01182F0E942801111104C03F
S113018083E08093010121C081E0809301011DC0BF
S11301908091000140E1BE016F5F7F4F90E00E94BB
S11301A0C101CE0101960E94B20188E391E00E9450
S11301B0B20180913C018F5F80933C0181E0809388
S11301C0010103C081E0809301010F900F90DF9142
S11301D0CF91FF91EF91BF91AF919F918F917F91BB
S11301E06F915F914F913F912F911F910F900FBE8F
S11301F00F901F90189587B18F7C87B988B1806361
S113020088B9E9EBF0E080818C7F808388E9809372
S1130210B800089594EA9093BC00ECEBF0E0908170
S11302209923ECF78093BB0084E88093BC00ECEB4B
S1130230F0E080818823ECF79091B900987F9831A1
S113024029F081E0903419F480E0089580E0089565
S113025084E98093BC0008951F920F920FB60F9209
S113026011242F938F939F93EF93FF938091C0005A
S11302702091C6008C71E0913F01EF5FEF71909186
S11302803E01E91739F0E0933F01F0E0EE5BFE4FE9
S1130290208301C082E090913D01892B80933D0130
S11302A0FF91EF919F918F912F910F900FBE0F901F
S11302B01F9018951F920F920FB60F9211248F93CF
S11302C09F93EF93FF939091410180914001981780
S11302D069F0E0914001EF5FEF71E0934001F0E0DD
S11302E0EE59FE4F80818093C60005C0E1ECF0E03A
S11302F080818F7D8083FF91EF919F918F910F90EB
S11303000FBE0F901F90189510924101109240015A
S113031010923F0110923E0199231CF422E0209395
S1130320C00090789093C5008093C40088E98093BE
S1130330C10086E08093C2000895209141012F5F9F
S11303402F71909140012917E1F3E22FF0E0EE596B
S1130350FE4F808320934101E1ECF0E080818062D4
S113036080830895CF93DF93EC018881882331F053
S113037021960E949D0189918111FBCFDF91CF913C
S11303800895BB274A3031F4992322F4BDE29095B5
S113039081959F4F0C94CD01BB27FB015527AA27BC
S11303A0880F991FAA1FA41710F0A41B83955051FE
S11303B0B9F7A05DAA3308F0A95DA193009779F776
S11303C0B111B1931192CB010C94E601DC01FC0153
S11303D0672F71917723E1F7329704C07C916D9375
S11303E070836291AE17BF07C8F30895F894FFCFE6
S11303F007010D0A5363616E204932432D62757300
S113040020666F7220646576696365733A0D0A002D
S11304100D0A0D4E756D626572206F6620646576F7
S10F042069636573203A2000202000006E
S9030000FC
