S0090000322E73726563E9
S11300000C9434000C943E000C943E000C943E007E
S11300100C943E000C943E000C943E000C943E0064
S11300200C943E000C943E000C943E000C943E0054
S11300300C943E000C943E000C943E000C943E0044
S11300400C943E000C943E000C943E000C943E0034
S11300500C943E000C943E000C943E000C943E0024
S11300600C943E000C943E0011241FBECFEFD8E048
S1130070DEBFCDBF0E9440000C9476000C940000BB
S1130080259A2D983D9A459880E22FEF39E698E11C
S1130090215030409040E1F700C0000095B198270E
S11300A095B92FEF39E698E1215030409040E1F7BF
S11300B000C0000098B1982798B92FEF39E698E16D
S11300C0215030409040E1F700C0000095B19827DE
S11300D095B92FEF39E698E1215030409040E1F78F
S11300E000C0000098B1982798B9CFCFF894FFCFFB
S9030000FC
